:020000041000EA
:1000000000B5324B212058609868022188439860DF
:10001000D860186158612E4B002199600221596106
:100020000121F02299502B49196001219960352056
:1000300000F044F80222904214D00621196600F024
:1000400034F8196E01211966002018661A6600F04E
:100050002CF8196E196E196E052000F02FF8012189
:100060000842F9D1002199601B49196000215960AB
:100070001A491B48016001219960EB211966A021F2
:10008000196600F012F800219960164914480160C1
:100090000121996001BC002800D000471248134993
:1000A000086003C880F30888084703B5996A0420EC
:1000B0000142FBD001200142F8D103BD02B5186610
:1000C0001866FFF7F2FF186E186E02BD00000240BE
:1000D000000000180000070000035F00212200005C
:1000E000F4000018222000A00001001008ED00E03C
:1000F00000000000000000000000000074B24E7A12
:1001000000200420F7010010C3010010C5010010F9
:10011000C1010010C1010010C1010010C101001097
:10012000C1010010C1010010C1010010C701001081
:10013000C1010010C1010010C9010010CB01001065
:10014000CD010010CD010010CD010010CD01001037
:10015000CD010010CD010010CD010010CD01001027
:10016000CD010010CD010010CD010010CD01001017
:10017000CD010010CD010010CD010010CD01001007
:10018000CD010010CD010010CD010010CD010010F7
:10019000CD010010CD010010CD010010CD010010E7
:1001A000CD010010CD010010CD010010CD010010D7
:1001B000CD010010CD010010CD010010CD010010C7
:1001C00000BE00BE00BE00BE00BE00BE00F04BF888
:1001D000103800BEF2EB8871B0A50510D8A5051047
:1001E0003402001090A31AE700202149086006C8D5
:1001F00081F3088810471F48006800282FD10DA4FC
:100200000ECC002902D000F012F8F9E71A491B4A77
:10021000002000E001C19142FCD1194988471949E9
:1002200088471949884700BEFDE701C901C29A42C3
:10023000FBD37047D8A50510C0000020841F002004
:100240009CC4051000000420000004209CC405107C
:1002500000100420001004200000000070470B482C
:100260000EF0BEF90047EFF30580C0B27047000002
:1002700008ED00E0000000D0881F0020AC0F022035
:1002800019C60010B5B000103DC700105756000049
:1002900006005250ABB36053C8FA04100600525027
:1002A000861C0302D8FA0410060052505422A29D64
:1002B000E0FA041005005250DE65F4689CC4051095
:1002C000F8B5C0460448054B10B5834203D0044B33
:1002D000002B00D0984710BD841F0020841F0020F1
:1002E0000000000006480749091A8B10C90FC918F9
:1002F00010B5491003D0044B002B00D0984710BD17
:10030000841F0020841F00200000000010B5074C4F
:100310002378002B09D1FFF7D5FF054B002B02D026
:10032000044800E000BF0123237010BDB02100206D
:100330000000000010DF0410054B10B5002B03D0A7
:100340000449054800E000BFFFF7CCFF10BDC046E0
:1003500000000000B421002010DF041008007047E6
:10036000044B10B518680833984201D00FF00EFA0C
:1003700010BDC046143B0020044B10B5186808336C
:10038000984201D00FF002FA10BDC046E43A0020B6
:10039000044B10B518680833984201D00FF0F6F9F5
:1003A00010BDC046FC3A0020044B10B51868083355
:1003B000984201D00FF0EAF910BDC046743B00200E
:1003C000044B10B518680833984201D00FF0DEF9DD
:1003D00010BDC0465C3B0020044B10B518680833C4
:1003E000984201D00FF0D2F910BDC046443B002026
:1003F000044B10B518680833984201D00FF0C6F9C5
:1004000010BDC0462C3B0020044B10B518680833C3
:10041000984201D00FF0BAF910BDC046CC3A002086
:10042000044B10B518680833984201D00FF0AEF9AC
:1004300010BDC046C03D0020044B10B518680833FD
:10044000984201D00FF0A2F910BDC046D83D00205F
:10045000044B10B518680833984201D00FF096F994
:1004600010BDC046F03D0020044B10B5186808339D
:10047000984201D00FF08AF910BDC046083E002016
:10048000044B10B518680833984201D00FF07EF97C
:1004900010BDC046303D0020044B10B5186808332D
:1004A000984201D00FF072F910BDC046483D0020BF
:1004B000044B10B518680833984201D00FF066F964
:1004C00010BDC046783D0020044B10B518680833B5
:1004D000984201D00FF05AF910BDC046603D00208F
:1004E000044B10B518680833984201D00FF04EF94C
:1004F00010BDC046903D0020044B10B5186808336D
:10050000984201D00FF042F910BDC046A83D00202E
:10051000044B10B518680833984201D00FF036F933
:1005200010BDC046BC3E0020044B10B5186808330F
:10053000984201D00FF02AF910BDC046D43E0020E9
:10054000044B10B518680833984201D00FF01EF91B
:1005500010BDC046843A0020044B10B5186808331B
:10056000984201D00FF012F910BDC046B43A0020F5
:10057000044B10B518680833984201D00FF006F903
:1005800010BDC0469C3A0020044B10B518680833D3
:10059000984201D00FF0FAF810BDC0466C3A002026
:1005A000044B10B518680833984201D00FF0EEF8EC
:1005B00010BDC046283C0020044B10B51868083315
:1005C000984201D00FF0E2F810BDC046403C002038
:1005D000044B10B518680833984201D00FF0D6F8D4
:1005E00010BDC046583C0020044B10B518680833B5
:1005F000984201D00FF0CAF810BDC046703C0020F0
:10060000044B10B518680833984201D00FF0BEF8BB
:1006100010BDC046883C0020044B10B51868083354
:10062000984201D00FF0B2F810BDC046BC3B00208C
:10063000044B10B518680833984201D00FF0A6F8A3
:1006400010BDC046103C0020044B10B5186808339C
:10065000984201D00FF09AF810BDC046D43B00205C
:10066000044B10B518680833984201D00FF08EF88B
:1006700010BDC046A43B0020044B10B518680833D9
:10068000984201D00FF082F810BDC046EC3B00202C
:10069000044B10B518680833984201D00FF076F873
:1006A00010BDC046AC3C0020044B10B518680833A0
:1006B000984201D00FF06AF810BDC046C43C00203B
:1006C000044B10B518680833984201D00FF05EF85B
:1006D00010BDC046DC3C0020044B10B51868083340
:1006E000984201D00FF052F810BDC046F43C0020F3
:1006F000044B10B518680833984201D00FF046F843
:1007000010BDC0460C3D0020044B10B518680833DE
:10071000984201D00FF03AF810BDC046EC3E0020E0
:10072000044B10B518680833984201D00FF02EF82A
:1007300010BDC046043F0020044B10B518680833B4
:10074000984201D00FF022F810BDC046383E00207C
:10075000044B10B518680833984201D00FF016F812
:1007600010BDC046983E0020044B10B518680833F1
:10077000984201D00FF00AF810BDC046683E002034
:10078000044B10B518680833984201D00EF0FEFFF4
:1007900010BDC046803E0020044B10B518680833D9
:1007A000984201D00EF0F2FF10BDC046503E00202E
:1007B000044B10B518680833984201D00EF0E6FFDC
:1007C00010BDC046203E0020044B10B51868083309
:1007D000984201D00EF0DAFF10BDC0468C3B0020DD
:1007E000F0B5C646561A04000D00170000B5B31048
:1007F000002E14DB0020002B02D030000EF0BAFFD8
:10080000831998462060A360AF4203D032002900CC
:100810000EF0AAFF4346636004BC9046F0BD014859
:1008200026F028FA10DF0410F8B505000E00541A5F
:1008300010D40BD020000EF09DFF071922003100CC
:100840002860AF600EF090FF6F60F8BD0027046075
:100850008460F9E7014826F00DFAC04610DF041065
:1008600070B505000E0082B000291DD0541A019405
:100870000F2C0BD80068012C1BD10B780370019C46
:10088000286800236C60035502B070BD002201A9E6
:1008900032F0ACF8019B2860AB60220031000EF012
:1008A00063FF019C2868ECE7002A05D1002400685A
:1008B000E7E7002CE5D0F0E7014826F0C3F9C04691
:1008C00044DF0410F0B50700083704000E0083B0C1
:1008D0000760002925D0080043F022F80500030036
:1008E00001900F280CD8012807D1327822720022FB
:1008F00020006360FA5403B0F0BD0028F7D008E090
:100900000022200001A932F071F80700019B20604D
:10091000A36038002A0031000EF026FF019B2768F3
:10092000E5E7014826F08EF944DF041070B50D4E5E
:1009300034687568AC420AD02300206808339842B6
:100940000BD018340EF022FFA542F5D13568002DEA
:1009500002D028000EF01AFF70BD1834A542EBD16A
:10096000F4E7C046B03E002070B50D4E346875689F
:10097000AC420AD023002068083398420BD01834C8
:100980000EF004FFA542F5D13568002D02D02800F5
:100990000EF0FCFE70BD1834A542EBD1F4E7C04662
:1009A000A03C002070B50D4E34687568AC420AD08A
:1009B00023002068083398420BD018340EF0E6FE6E
:1009C000A542F5D13568002D02D028000EF0DEFEDC
:1009D00070BD1834A542EBD1F4E7C046043C0020BA
:1009E00070B50D4E34687568AC420AD0230020689B
:1009F000083398420BD018340EF0C8FEA542F5D14A
:100A00003568002D02D028000EF0C0FE70BD1834ED
:100A1000A542EBD1F4E7C046243D002070B50D4E51
:100A200034687568AC420AD02300206808339842C5
:100A30000BD018340EF0AAFEA542F5D13568002D72
:100A400002D028000EF0A2FE70BD1834A542EBD1F2
:100A5000F4E7C0461C3F0020F0B54746CE4680B5BF
:100A6000571A9046FA1093009B180C0019015B1856
:100A700019025B1819045B185B009B18264A0600D4
:100A800083B0934245D80025002B03D038000EF0E8
:100A900071FE0500EF193560B760A0450BD12AE063
:100AA000012F33D11B782B72002318346F60C3558C
:100AB0001835A0451FD0280023680830994667687C
:100AC0002860002B1DD001970F2FE9D900222800A4
:100AD00001A931F08BFF019B2860AB603A004946C9
:100AE0000EF042FE0023019F286818346F60C35542
:100AF0001835A045DFD1756003B00CBC904699460F
:100B0000F0BD002FD0D0054826F09CF8002FCBD0A8
:100B1000E4E7034826F0AEF85555550544DF0410C8
:100B200010DF041008B4F0B51C2382B000AF84B00D
:100B30006E46FB1804CB0400102130003B600DF022
:100B400001FD05002000083020607D600F2D10D8C9
:100B5000012D0BD13378237200236560BD464355C8
:100B6000200002B0F0BC08BC01B01847002DF3D043
:100B700007E000222000391D31F038FF7B6820603B
:100B8000A3602A0031000EF0EFFD7D682068E3E7E6
:100B9000F0B587B02D225021684602AF009731F0A2
:100BA00043FF3A4C019A2000009931F091FA036812
:100BB00005000C3B1B68C318DE6F002E64D0337F2A
:100BC000002B3AD02723F15C280031F0FBF931F0FB
:100BD00069F9342220002E4931F07AFA23680C3B5F
:100BE0001B68E318DD6F002D4ED02B7F002B31D01A
:100BF0002723E95C200031F0E5F931F053F92000BA
:100C0000019A009931F064FA036804000C3B1B68F8
:100C1000C318DD6F002D37D02B7F002B27D0272363
:100C2000E95C200031F0CEF931F03CF90098B8428F
:100C300001D00EF0ABFD07B0F0BD30001AF0B2FAF3
:100C40003368144A9B690A219342BDD0300098470B
:100C50000100B9E728001AF0A5FA2B680D4A9B6934
:100C60000A219342C6D0280098470100C2E7280015
:100C70001AF098FA2B68074A9B690A219342D0D050
:100C8000280098470100CCE725F0CCFF94370020DE
:100C900070DF04105D03001070B5214C0C212000A2
:100CA0000AF0C2FB002805D10D2120000AF0BCFB90
:100CB000002825D01B4C252220001B4931F008FAC2
:100CC00023680C3B1B68E318DD6F002D25D02B7FBC
:100CD000002B08D02723E95C200031F073F931F0B4
:100CE000E1F8012070BD28001AF05CFA2B680F4A69
:100CF0009B690A219342EFD0280098470100EBE757
:100D00000E2120000AF090FB0028D3D10F212000F3
:100D10000AF08AFB0028E5D0CCE725F083FFC04627
:100D2000280C022094370020A8DF04105D03001077
:100D3000F0B5C6460D000221036800B50C3B1A68E9
:100D40000600821891601C6875230419E35C82B068
:100D5000002B27D074233022E25433680C3B1A68EE
:100D60004A23B218D16899430B0008210B43D36082
:100D70002B6890CBBC4210D06B46DD1D20239846DB
:100D80002178300031F078FB4346012229000134FC
:100D90002B7031F09DF9A742F2D1300002B004BCB3
:100DA0009046F0BDE76F002F12D03B7F002B03D0A1
:100DB00075230122E254CDE738001AF0F3F93B68BD
:100DC000044A9B699342F3D0202138009847EFE70B
:100DD00025F028FF5D03001070B51F4C1022200085
:100DE0001E4931F075F91E4B1B68002B25D0012BD5
:100DF00029D0002220001B4931F06AF923680C3BFE
:100E00001B68E318DD6F002D23D02B7F002B07D04C
:100E10002723E95C200031F0D5F831F043F870BDAC
:100E200028001AF0BFF92B680F4A9B690A219342E8
:100E3000F0D0280098470100ECE7042220000B497D
:100E400031F046F9D5E708222000094931F040F990
:100E5000CFE725F0E7FEC046943700201CE00410E1
:100E6000200C02205CE704105D03001030E0041049
:100E700038E00410F0B5DE4657464E464546E0B52C
:100E80000E4CF5B02378BFF35B8FDB0701D400F085
:100E9000C7FC0B4F0025380011F0ACF914200AF004
:100EA00093FF20239846074C074E3800062D01D9A2
:100EB00000F032FCAB00F3589F46C04600240020EF
:100EC0008C0C0220E842002020E1041011F062FBAB
:100ED000216863685B1A9A101B2B01D800F0AAFDE9
:100EE000886104AB0293EF4B02A899460CCB9C4659
:100EF0004B4662441968FFF7B3FCEB4B039A9B1A0D
:100F0000212B01D800F082FD2222E84902A832F00C
:100F100033F8E74B039A180002999B4631F0D8F852
:100F20008046380011F00EFBE24E10223300E249F9
:100F3000009062A8FFF7F6FD4046639A629931F08F
:100F4000C7F8804603680C3B1B684344DB6F9A4636
:100F5000002B01D100F072FD1B7F002B01D100F0AE
:100F600025FC27235246D15C404631F02BF830F067
:100F700099FF629864AB984201D00EF007FC02988A
:100F800004AB984201D00EF001FC6AAB68934B466B
:100F90000CCB9C464B466244196868A8FFF760FC7E
:100FA000C14B699A9B1A212B01D800F02FFD2222F8
:100FB000C24968A831F0E0FF699A6899584631F053
:100FC00087F88046380011F0EFFA33001022BA4952
:100FD00000906EA8FFF7A6FD40466F9A6E9931F01B
:100FE00077F8804603680C3B1B684344DB6F9A46E6
:100FF000002B01D100F022FD1B7F002B01D100F05E
:10100000E6FB27235246D15C404630F0DBFF30F050
:1010100049FF6E9870AB984201D00EF0B7FB68980C
:101020006AAB984201D00EF0B1FB380011F0BCFA67
:10103000A34B98460ACB5B1A9A10002800D07AE39B
:10104000072B01D800F0E5FC486001239D4A5B4274
:10105000136010AB0E934B460EA806CB8A18FFF711
:10106000FFFB914B0F9A9B1A202B01D800F0CEFC6E
:10107000212295490EA831F07FFF216863685B1A31
:101080009A101B2B01D800F0D5FC8B6910228A49DD
:10109000009314A83300FFF745FD0F9F159A0E9B90
:1010A00010A9B8188B4201D100F063FC1099884256
:1010B00000D8C8E3149916ADA94201D100F08CFC08
:1010C000169DAC46604500D8D5E30EA831F054FF1C
:1010D0000822070091461CAB1A933B68B9444B4564
:1010E00000D1D8E31A93BB681C937B681B934B46D3
:1010F0003B6000237B603B721B9A6B4B9A4201D191
:1011000000F084FC714B012219001AA8994631F0B5
:1011100033FF0822924622AB2093036882440700E3
:10112000534501D100F045FC2093836822937B68EE
:101130002168219353463B6000237B603B726368C8
:101140005B1A9A10172B01D800F07EFC4B69102215
:101150005949009326A83300FFF7E4FC219F279A02
:10116000209B22A9B8188B4201D100F005FC2299DE
:10117000884200D86BE3269928ADA94201D100F03E
:1011800038FC289DAC46604500D8CCE320A831F05F
:10119000F3FE0822070092462EAB2C933B68BA441C
:1011A000534500D1CFE32C93BB682E937B682D93DE
:1011B00053463B6000237B603B722D9A3A4B9A4228
:1011C00001D100F023FC012249462CA831F0D4FEC5
:1011D0000822914634AB32939A4603688144070053
:1011E0004B4500D1D9E33293836834937B682168FF
:1011F00033934B463B6000237B603B7263685B1A12
:101200009A10132B01D800F01BFC0B6910220093DD
:1012100038A833002849FFF785FC339F399A329B61
:10122000B818534500D1AAE33499884200D80CE39A
:1012300038993AADA94200D1DFE33A9DAC4660450A
:1012400000D82EE332A831F097FE0822070091461D
:1012500040AB3E933B68B9444B4500D131E33E93EC
:10126000BB6840937B683F934B463B6000237B60A9
:101270003F9A3B720C4B9B1A0A2B00D8C6E30B22F9
:1012800013493EA831F078FE0822914646AB4493BC
:101290000368814407004B4500D184E3449383688D
:1012A000469317E08C3B0020FFFFFF3F70E00410E7
:1012B0009437002094E0041045E5001098E00410F5
:1012C000C80C02208C130020DCE0041000E10410A4
:1012D00004E104107B68216845934B463B60002382
:1012E0007B603B7263685B1A9A100F2B00D89DE3FA
:1012F000CB681022D74900934AA83300FFF712FCAD
:10130000459F4B9A449B46A9B8188B4200D13AE3BB
:101310004699884200D8A0E24A994CADA94200D132
:1013200061E34C9DAC46604500D8E6E244A831F04C
:1013300023FE08220700914652AB50933B68B94404
:101340004B4500D1E9E25093BB6852937B685193BF
:101350004B463B6000237B60519A3B72BE4B9B1A0D
:10136000042B00D852E30522BC4950A831F004FEFA
:101370000822914658AB56930368814407004B45B9
:1013800000D104E35693836858937B682168579390
:101390004B463B6000237B603B7263685B1A9A108C
:1013A0000B2B00D83EE38B681022AA4900935CA85F
:1013B0003300FFF7B7FB579F5D9A569B58A9B818A3
:1013C0008B4200D1DDE25899884200D843E25C9913
:1013D0005EADA94200D103E35E9DAC46604500D8F6
:1013E00075E256A831F0C8FD08220700914664ABAB
:1013F00062933B68B9444B4500D178E26293BB6885
:1014000064937B6863934B463B6000237B603B7235
:10141000639A914B9A4200D1F8E20122904962A866
:1014200031F0AAFD082291466AAB689303688144B3
:1014300007004B4500D1C9E2689383686A937B68D3
:10144000216869934B463B6000237B603B72636875
:101450005B1A9A10072B00D8DBE24B6810227D49FB
:1014600000936EA83300FFF75DFB699F6F9A689B3E
:101470006AA9B8188B4200D187E26A99884200D8DD
:10148000E7E16E9970ADA94200D1AFE2709DAC4624
:10149000604500D85DE268A831F06EFD07000822C3
:1014A00094460AAB089399463B68BC44654663453D
:1014B00000D185E20893BB680A937B6809930023F7
:1014C0003D603B726E987B6070AB984201D00EF02D
:1014D0005DF968986AAB984201D00EF057F96298AE
:1014E00064AB984201D00EF051F95C985EAB984223
:1014F00001D00EF04BF9569858AB984201D00EF03F
:1015000045F9509852AB984201D00EF03FF94A98F5
:101510004CAB984201D00EF039F9449846AB984252
:1015200001D00EF033F93E9840AB984201D00EF056
:101530002DF938983AAB984201D00EF027F932983D
:10154000504501D00EF022F92C982EAB984201D0D4
:101550000EF01CF9269828AB984201D00EF016F92F
:10156000209822AB984201D00EF010F91A981CABCB
:10157000984201D00EF00AF9149816AB984201D0A7
:101580000EF004F90E9810AB984201D00EF0FEF860
:1015900043460ACB5B1A9A10072B00D839E24B68F6
:1015A000012B00D132E123686268934200D134E21A
:1015B0001B6810222749009368A83300FFF7B2FA8E
:1015C0000123002200930021254B68A831F00AFC7A
:1015D000050070AB6E93036808350400AB4200D180
:1015E0000EE26E9383687093636808A86F9300237C
:1015F0002560237263606F9A6E9931F0BDFC6E981E
:1016000070AB984201D00EF0C1F868986AAB98426E
:1016100001D00EF0BBF85846099A089930F058FDF1
:10162000036804000C3B1B68C318DD6F002D00D15C
:1016300004E22B7F002B00D1DAE02723E95C2000B5
:1016400030F0C0FC30F02EFC089848450AD00EF06F
:101650009DF807E045E50010FFFFFF3F10E1041093
:10166000C0EC041075B03CBC90469946A246AB460F
:10167000F0BD10F085FF216863685B1A9A10172B84
:1016800000D8E1E148610135FFF70FFC10F06EFF73
:10169000216863685B1A9A10132B00D8D0E10861A7
:1016A0000135FFF702FC10F057FF216863685B1AF1
:1016B0009A100F2B00D8B9E1C8600135FFF7F5FB90
:1016C00010F040FF216863685B1A9A100B2B00D85A
:1016D000A8E18860380010F067FF0028D3D02168A7
:1016E00063685B1A9A100B2B00D89BE18B68002B68
:1016F00000D0B4E00C338B600135FFF7D6FB10F05F
:1017000017FF216863685B1A9A10072B00D880E1E5
:1017100048600135FFF7C9FB10F000FF23686268DD
:101720009A4200D179E11860062D01D1FFF7D9FB6B
:101730000135FFF7BAFB072B00D86AE101234B60A4
:101740006AAB68934B460CCB9C464B466244196887
:1017500068A8FFF785F8BE4968A831F037FC699A98
:101760006899584630F0B4FC8246380010F038FFD3
:1017700033001022B74900906EA8FFF7D3F96F9A93
:101780006E99504630F0A4FC30F07CFC6E9870AB43
:10179000984201D00DF0FAFF68986AAB984201D0E8
:1017A0000DF0F4FF380010F01BFF4EE4504619F026
:1017B000F9FC53461B68A84A9B690A21934201D150
:1017C000FFF7D2FB504698470100FFF7CDFB50468C
:1017D00019F0E8FC53461B689F4A9B690A21934213
:1017E00001D1FFF711FC504698470100FFF70CFCB0
:1017F000280019F0D7FC2B68974A9B690A2193426D
:1018000000D11CE728009847010018E7934B1B689C
:10181000002B00D1A5E0924908A831F0D7FBFAE6E9
:10182000200013F04FF8002801D1FFF732FB8D495B
:101830008D48FFF747F8200013F060F88B483FF021
:10184000A1F9FFF726FB14993FE43899FAE42699A9
:101850009CE46E991FE65C99C3E54A9966E50C2BFA
:1018600000D183E000DC0EE742460C3B13438B6063
:101870000135FFF71AFB00220097002114A831F070
:10188000B1FA0822070091461CAB1A933B68B94491
:101890004B4500D026E4494608321CA80DF064FFF1
:1018A00023E400220097002138A831F09BFA082297
:1018B0000700914640AB3E933B68B9444B4500D08E
:1018C000CDE44946083240A80DF04EFFCAE400229C
:1018D000009700215CA831F085FA082207009146A4
:1018E00064AB62933B68B9444B4500D086E54946FA
:1018F000083264A80DF038FF83E50022009700212C
:101900004AA831F06FFA08220700914652AB509373
:101910003B68B9444B4500D015E54946083252A80A
:101920000DF022FF12E500220097002126A831F0D9
:1019300059FA0822070092462EAB2C933B68BA4412
:10194000534500D02FE4514608322EA80DF00CFF6D
:101950002CE40097002200216EA831F043FA070022
:101960009DE5434908A831F031FB54E62C238B60F8
:101970007EE70F21FFF79BFB0F21FFF7F9FB0F21FC
:1019800053E40F2120E50F21C3E40F2176E54946FA
:10199000083258A80DF0E8FEF7E4494650460832F0
:1019A0000DF0E2FE22E44946083246A80DF0DCFEC6
:1019B00090E45146083222A80DF0D6FEFFF7B7FB9F
:1019C0001022614648460DF0CFFE76E549460832C2
:1019D0006AA80DF0C9FE32E50F25AC46FFF772FB91
:1019E0000F25AC46FAE40F25AC469CE40F25AC4627
:1019F0004EE50F25AC46FFF7C6FB0F25AC461EE4AF
:101A00001022290070A80DF0AFFEEDE5194825F071
:101A100031F90121184825F045F900221648110036
:101A200025F040F90221144825F03CF90321124821
:101A300025F038F90621104825F034F925F0F2F8A0
:101A400004210D4825F02EF905210B4825F02AF92F
:101A5000BCE0041045E500105D0300108C1300206D
:101A600018E1041044E004108C3B0020C90700106A
:101A70001CE1041058E00410D0DF0410F0B5454616
:101A80004E46DE4657460024E0B5824B824D9846CE
:101A9000824E8BB0002C6ED0022C00D1AAE01D2209
:101AA0004146280030F014FB736831685A1AD2108E
:101AB00093009B1818011B1818021B1818041B18F8
:101AC0005B009A18A24200D8D9E063001B19DB0022
:101AD000C91806C9280030F0FBFA05227049824671
:101AE00030F0F6FA6F4B99464A461B685268D21A94
:101AF0009210A24200D8C2E0A700DB5910226A4926
:101B0000009304A8694BFFF70DF85046059A049915
:101B100030F0DEFA824603680C3B1B685344DB6FEF
:101B20009B46002B00D1AEE01B7F002B00D17CE058
:101B300027235A46D15C504630F044FA30F0B2F9CF
:101B4000049806AB984201D00DF020FE4B464A4661
:101B50001B685268D21A9210A24200D88FE0D95D59
:101B6000534F380010F03CFE02A90855062C0AD04D
:101B70000134002C90D100214D4810F031FE02AB11
:101B800018700134F5E70722380010F01DFA040040
:101B900014200AF019F93A222800464930F098FA40
:101BA000002C5CD106224449280030F091FA2B68C1
:101BB0000C3B1B68EB18DE6F002E64D0337F002BCC
:101BC00050D02723F15C280030F0FCF930F06AF99E
:101BD000002C07D0380010F00DFB14200AF0F4F8A8
:101BE000FFF748F920000BB03CBC90469946A2464E
:101BF000AB46F0BD2B4B0ACB5B1A9A100B2B44D98A
:101C00002B4F0B7A3800994610F0CEFC00281BD1E0
:101C10002023494600229943284B38001A6010F0CF
:101C2000DFFD02AB98700134A3E7584619F0BAFA09
:101C30005B461B68224A9B690A21934200D17AE7DE
:101C400058469847010076E7380010F0C9FC002894
:101C5000DED020214B460B4319000122DCE70A228B
:101C60001849A1E7300019F09DFA3368144A9B69BE
:101C70000A219342A7D0300098470100A3E7210032
:101C8000114825F00FF824F0CDFF02210E4825F071
:101C900009F8C04650E1041094370020BC2400200D
:101CA00068EF0410E842002045E5001094E00410BD
:101CB0008C0C022070E1041048E104108C13002009
:101CC0005D0300103CE10410D0DF041070B504681F
:101CD00045680600AC420AD02300206808339842C9
:101CE0000CD018340DF052FDA542F5D13568002D09
:101CF00002D028000DF04AFD300070BD1834A54216
:101D0000EAD1F3E7F0B5D6464F464646C0B5CEB069
:101D100001286ED08F4B1868002801D00DF036FDD9
:101D20008D4B1868002801D00DF030FD8B4B1868E2
:101D3000002801D00DF02AFD894B1868002801D039
:101D40000DF024FD874B1868002801D00DF01EFD12
:101D5000854B1868002801D00DF018FD834B1868DA
:101D6000002801D00DF012FD814B1868002801D029
:101D70000DF00CFD7F4B1868002801D00DF006FD1A
:101D80007D4B1868002801D00DF000FD7B4B1868D2
:101D9000002801D00DF0FAFC7948FFF797FF794849
:101DA000FFF794FF7848FFF791FF7848FFF78EFF21
:101DB0007748FFF78BFF7748FFF788FF7648FFF7F4
:101DC00085FF7648FFF782FF754B1868002801D021
:101DD0000DF0DCFC734B1868002801D00DF0D6FC28
:101DE000714813F081F84EB01CBC90469946A2464B
:101DF000F0BD6C4627006C4813F066F86B4B00256D
:101E0000984607CB07C71B6800263B600023654840
:101E1000210005604660836004AA9946FEF7E0FC55
:101E200043462200103323CB23C223CB23C20026F8
:101E300023CB23C24B460025594809AA836005607D
:101E400046602100FEF7CCFC59492000FEF73AFD20
:101E5000584906A8FEF736FD57490CA8FEF732FD93
:101E6000564912A8FEF72EFD554918A8FEF72AFD7F
:101E700054491EA8FEF726FD2AAF534924A8FEF7B1
:101E800021FD52493800FEF71DFD30AB18005049C6
:101E90009A46FEF717FD4F4936A8FEF713FD4B464D
:101EA0003E4821000560466083603CAAFEF7D4FDF1
:101EB00036AD2B0028680833984207D00DF066FC39
:101EC0002B00183BAC4205D01D00F2E72B00183B5D
:101ED000AC42F9D140492000FEF7F4FC3F4906A886
:101EE000FEF7F0FC3E490CA8FEF7ECFC3D4912A8B9
:101EF000FEF7E8FC3C4918A8FEF7E4FC3B491EA8A5
:101F0000FEF7E0FC3A4924A8FEF7DCFC394938002A
:101F1000FEF7D8FC38495046FEF7D4FC374936A8BE
:101F2000FEF7D0FC00231C4821000360436083605F
:101F30003CAAFEF791FD36AD2B0028680833984285
:101F40005ED00DF023FC2B00183BAC425CD01D0092
:101F5000F2E7C046C80C0220E8420020B81F00206B
:101F6000D81F002098200020A81F0020E81F002074
:101F7000C81F0020881F002068200020981F002014
:101F80008820002058200020F81F00207820002002
:101F90002820002038200020BC24002048200020D9
:101FA0001820002008200020643A002090F404103B
:101FB0007C4B0510C0E10410C4E10410C8E104101A
:101FC000CCE10410D0E10410D4E10410D8E10410F5
:101FD000DCE10410E0E10410E4E10410ECE10410A1
:101FE000F4E10410FCE1041000E2041004E2041027
:101FF0000CE2041014E204101CE2041024E20410A9
:102000002B00183BAC42A2D1F0492000FEF75AFC4D
:10201000EF4906A8FEF756FCEE490CA8FEF752FC65
:10202000ED4912A8FEF74EFCEC4918A8FEF74AFC51
:10203000EB491EA8FEF746FCEA4924A8FEF742FC3D
:1020400000220023E84821000260436000233A0098
:1020500083602AAFFEF700FD3E00183E3300306873
:102060000833984201D00DF091FBA642F5D1DF492B
:102070003000FEF727FCDE4906A8FEF723FCDD4909
:102080000CA8FEF71FFCDC4912A8FEF71BFCDB497D
:1020900018A8FEF717FCDA491EA8FEF713FCD94969
:1020A00024A8FEF70FFCD8493800FEF70BFCD749EF
:1020B0005046FEF707FCD64936A8FEF703FCD54983
:1020C0003CA8FEF7FFFBD44942A8FEF7FBFBD3492F
:1020D00048A8FEF7F7FB00220023D14848AD026074
:1020E00043600023310083604EAAFEF7B5FC2B004D
:1020F0002868083398420BD00DF048FB2B00183BA2
:10210000AE4209D01D002B00286808339842F3D155
:102110002B00183BAE42F5D1C2492000FEF7D2FB9E
:10212000C14906A8FEF7CEFBC0490CA8FEF7CAFBC2
:10213000BF4912A8FEF7C6FBBE4918A8FEF7C2FBAE
:10214000BD491EA8FEF7BEFBBC4924A8FEF7BAFB9A
:1021500000220023BA4821000260436000233A00B5
:1021600083602AAFFEF778FC3D00183D2B002868FD
:102170000833984201D00DF009FBA542F5D1B149D1
:102180002000FEF79FFBB04906A8FEF79BFBAF4976
:102190000CA8FEF797FBAE4912A8FEF793FBAD49DA
:1021A00018A8FEF78FFBAC491EA8FEF78BFBAB49C6
:1021B00024A8FEF787FB00220023A9482100026023
:1021C000436000233A0083602AAFFEF745FC3D00E0
:1021D000183D2B0028680833984201D00DF0D6FA3C
:1021E000A542F5D19F492000FEF76CFB9E4E06A844
:1021F0003100FEF767FB9D490CA8FEF763FB9C4985
:1022000012A8FEF75FFB9B4918A8FEF75BFB9A49F3
:102210001EA8FEF757FB994924A8FEF753FB9849DF
:102220003800FEF74FFB0022002396482100026091
:102230004360002352468360FEF70EFC30AB9A46A3
:102240001D00183D2B0028680833984201D00DF07E
:102250009DFAA542F5D18C492000FEF733FB3100F1
:1022600006A8FEF72FFB89490CA8FEF72BFB88492F
:1022700012A8FEF727FB874918A8FEF723FB86491B
:102280001EA8FEF71FFB854924A8FEF71BFB844907
:102290003800FEF717FB002200238248210002606D
:1022A0004360002352468360FEF7D6FB30AD183DF5
:1022B0002B0028680833984201D00DF067FAA54238
:1022C000F5D10024002600270C22002128000DF063
:1022D00045FA7548290006604760846003AAFEF746
:1022E0007FFA0822210001A80DF038FA78236F4800
:1022F000290006604760846003AA9A460093FEF7AF
:102300006FFA43462A00343343CB43C200270026EA
:102310006748290006604760846003AAFEF760FAF8
:102320008023FF226348290006604760AC60846018
:102330000092019303AAFEF753FAFF23FF225E489F
:10234000290006604760AC6084600092019303AA94
:10235000FEF746FA0C22210028000DF0FFF9534643
:102360005648290006604760846003AA6B60FEF748
:1023700037FA53465248290006604760846003AA32
:1023800000960197AB60FEF72BFA43462A004033D4
:1023900043CB43C2002700264A4829000660476015
:1023A000846003AAFEF71CFA43462A004C3343CB51
:1023B00043C2002700264448290006604760846025
:1023C00003AAFEF70DFA434680E0C0462CE2041053
:1023D00030E2041034E2041038E204103CE204104D
:1023E00040E2041044E204103820002048E20410C7
:1023F0004CE2041050E2041054E2041058E20410BD
:102400005CE2041060E2041064E2041068E204106C
:102410006CE2041070E2041074E2041078E204101C
:10242000282000207CE2041084E204108CE20410D6
:1024300094E204109CE20410A4E20410ACE2041044
:1024400078200020B4E20410C0E20410CCE20410B2
:10245000D8E20410E4E20410F0E20410FCE20410FC
:10246000F81F002008E30410C44B05100CE304100F
:1024700010E3041014E3041018E304101CE3041028
:1024800020E304105820002024E304102CE304105F
:1024900038E3041040E3041048E3041050E3041050
:1024A00058E3041088200020981F00206820002096
:1024B000881F0020C81F0020E81F0020A81F002040
:1024C00098200020D81F0020B81F00202A00583371
:1024D00043CB43C243CB43C214481B68290013605B
:1024E00004604460846007AAFEF77AF91422210090
:1024F00002A80DF033F9012301220D480092019347
:10250000290007AA046044608460FEF769F909495C
:10251000094808F0C1FE094B094A1A60094A9A8025
:1025200016229A713C321A755DE4C046E8420020DA
:10253000C80C0220F8420020280C02208C0C02203B
:102540009014002014150000F0B5DE4645465746AD
:102550004E46E0B58BB004AB984600234246059347
:10256000137203680E000C3B1968050041186C31AA
:1025700006AF03A8049712F0EFFC03A825F0C0F9FA
:10258000040003A812F0A0FD237F002B38D04D23B8
:10259000E35C9A464E23E35C994653460021009340
:1025A00040460423059A30F0AFFB33681A0703D581
:1025B0004A46049B1A7033685A0703D54A46049B5F
:1025C0005A7033689A0703D54A46049B9A70336859
:1025D000DB0702D54A46049BDA702800059A049965
:1025E0002FF076FD04000498B84201D00DF0CEF82B
:1025F00020000BB03CBC90469946A246AB46F0BDCD
:10260000200018F0CFFD0F4A2368934630229B69C3
:1026100092465B4510D1237F002BBBD1200018F0E0
:10262000C1FD3122236891469B695B45B5D03121BC
:10263000200098478146B0E7302120009847824625
:10264000E9E7C0465D030010F0B5040008302060E3
:102650000F6816004D6883B0002F1FD001950F2D15
:102660000DD8012D1FD13B7823720023656043559F
:1026700006CE200030F080FC200003B0F0BD002228
:10268000200001A930F0B2F9019B2060A3602A006C
:1026900039000DF069F8019D2068E6E7002DE4D0CF
:1026A000024824F0CFFA002DDFD0F0E744DF041019
:1026B000F0B5D6464F4646460400C0B5B84FD6B032
:1026C0002722B84938002FF003FDB74B1022B74935
:1026D0001AA80094FEF726FA38001B9A1A992FF0D0
:1026E000F7FC036805000C3B1B68C318DE6F002E67
:1026F00000D192E2337F002B55D02723F15C2800D4
:102700002FF060FC2FF0CEFB1A981CAB9A46984233
:1027100001D00DF03BF8A64D2B78BFF35B8FDB07A4
:1027200000D4B1E001221100A24D2B78BFF35B8FE2
:10273000194088461A4243D004AB029398460023BE
:102740000AAA08929C4E914602AD08AA03932B72E6
:10275000099313723378BFF35B8FDB0700D482E0F9
:10276000202C03D8954BA4001B599F46402C00D029
:10277000B5E0934B03CB091AC9108B005B181A0103
:102780009B181A029B181A049A1852005218052A0C
:1027900000D84CE201007831072A00D99BE00721DC
:1027A000884824F07FFA300018F0FCFC3368864A31
:1027B0009B690A219342A2D03000984701009EE70E
:1027C000280012F07FF80028B6D020AE7F493000F4
:1027D000FEF778F87E4926A8FEF774F87D492CA804
:1027E000FEF770F87C4932A8FEF76CF87B4938A8F0
:1027F000FEF768F87A493EA8FEF764F8794944A8DC
:10280000FEF760F878494AA8FEF75CF8774950A8C7
:10281000FEF758F843466A4831000360436083601E
:1028200056AAFEF719F9280012F068F850AD704862
:102830003EF0A8F92B002868083398420CD00CF021
:10284000A5FF2B00183BAE4200D175E71D002B0001
:10285000286808339842F2D12B00183BAE4200D1D1
:102860006AE71D00F3E7300012F02CF8002800D1D1
:1028700076E760496048FEF725F8300012F03EF830
:102880005E483EF07FF96BE7280012F01BF8002845
:1028900000D147E75A495B48FEF714F8280012F0C8
:1028A0002DF859483EF06EF93CE7454B03CB091A29
:1028B000C9108B005B181A019B181A029B181A0486
:1028C0009A1852005218042A00D8ACE10100603175
:1028D000072A00D863E7020020AEA83260E1384B37
:1028E00006CB521AD21093009B1818011B1818021D
:1028F0001B1818041B185B009A18082A00D89AE1C4
:102900002800C03130F0B4F820AE2A0030003D4934
:10291000FFF79AFE3800219A20992FF0D9FB03681F
:1029200004000C3B1B68C318DD6F002D00D174E15F
:102930002B7F002B00D162E12723E95C20002FF0E0
:1029400041FB2FF0AFFA209822AB984201D00CF057
:102950001DFF0898484501D00CF018FF029840452B
:1029600001D00CF013FF56B01CBC90469946A2460D
:10297000F0BD134B03CB091AC9108B005B181A0169
:102980009B181A029B181A049A1852005218012A0E
:1029900000D854E101001831072A9CD8FFE6C04650
:1029A0009437002060E3041094E0041045E5001023
:1029B000942400208C2400209024002058E404104B
:1029C000B03E0020D0DF04105D030010A4E304102B
:1029D000B0E30410BCE30410C8E30410E0E3041007
:1029E000F4E3041004E4041014E4041020E40410DC
:1029F0002D09001030E40410BC3E00201105001029
:102A000088E30410D43E002029050010924C63682E
:102A100021685A1AD21093009B1818011B1818022B
:102A20001B1818041B185B009A18022A00D8F6E03D
:102A30000A001AA889493032FFF706FE06CC521A5E
:102A4000D21093009B1818011B1818021B181804A9
:102A50001B185B009A18072A00D8A0E6AC23CA58B6
:102A6000043BC9581AA830F087FA20AE01003000A4
:102A700030F0B2F83100280030F0C8F8209822ABCE
:102A8000984201D00CF082FE1A98504500D13CE7E4
:102A90000CF07CFE39E7704C636821685A1AD2103A
:102AA00093009B1818011B1818021B1818041B18F8
:102AB0005B009A18022A00D8B1E00A000EA8303252
:102AC0006649FFF7C1FD66490EA830F07FFA0100A4
:102AD00014A830F081F8636821685A1AD210930064
:102AE0009B1818011B1818021B1818041B185B00F0
:102AF0009A18032A00D8AAE0CA6C14A8896C30F08E
:102B00003BFA01001AA830F067F806CC521AD2102E
:102B100093009B1818011B1818021B1818041B1887
:102B20005B009A18072A00D839E6AC23CA58043B40
:102B3000C9581AA830F020FA20AE0100300030F059
:102B40004BF83100280030F061F8209822AB984211
:102B500001D00CF01BFE1A98504501D00CF016FE67
:102B6000149816AB984201D00CF010FE0E9810ABE2
:102B700098428DD1C9E6384B06CB521AD210930039
:102B80009B1818011B1818021B1818041B185B004F
:102B90009A18072A00D802E60A00304920AEA83267
:102BA0003000FFF751FD3100280030F02FF8209859
:102BB00022AB984200D06BE7A7E6002300210093E8
:102BC0002800284B039A30F00DF920AE9DE6224BE9
:102BD00019685868401AC01083001B181A019B1806
:102BE0001A029B181A049A1852001218002A2AD0A6
:102BF000072A00D8D3E50A0020AEA832D0E7280083
:102C000018F0D0FA2B68184A9B690A21934200D128
:102C100094E628009847010090E624F003F802218A
:102C2000124824F03FF80421104824F03BF8052115
:102C30000E4824F037F808210C4824F033F801211D
:102C40000A4824F02FF81100084824F02BF803213B
:102C5000064824F027F8C046B03E0020BC3E0020C5
:102C600050E404105CE704105D030010D0DF041092
:102C7000F0B5DE4657464E464546E0B5ED4CA7B0AA
:102C80002378BFF35B8FDB0701D400F022FCEA4D11
:102C9000EA4C2378BFF35B8FDB0701D400F033FCF1
:102CA000E74C2378BFF35B8FDB0701D400F044FCD3
:102CB000E44C2378BFF35B8FDB0701D400F055FCB5
:102CC000E14C2378BFF35B8FDB0701D400F066FC97
:102CD000DE4C2378BFF35B8FDB0701D400F077FC79
:102CE000DB4C2378BFF35B8FDB0701D400F088FC5B
:102CF000D84C2378BFF35B8FDB0701D400F099FC3D
:102D000069682B688C4663441A00296820A822AEA3
:102D10002096FDF7A5FDD04920A830F057F9CF4CFB
:102D2000219A209920002FF0D3F92FF0ABF92098A9
:102D3000B04201D00CF02AFD0322C94B1A60C94AE7
:102D400013685268D21A921001D100F0EFFC196892
:102D50000391052A01D800F0EDFC5A691B69C249AC
:102D600004922000332205932FF0B2F920002FF0B7
:102D700089F92B22BD4920002FF0AAF920002FF05D
:102D800081F92B22BA4920002FF0A2F920002FF060
:102D900079F93D22B74920002FF09AF920002FF051
:102DA00071F92B22B44920002FF092F920002FF066
:102DB00069F9B24B2C221900200098462FF088F9AF
:102DC00020002FF05FF9AE480FF0B0FF002800D1CF
:102DD0000AE31F21AA480FF011FD0690FF2800D139
:102DE000E8E2002200230E920F930EAB99460023D7
:102DF0004A46012093600CF0BDFC4A46431C936098
:102E0000069A290002704A46536014AB9A469D4ABE
:102E10000E901800FFF718FC9B49504630F0D6F88A
:102E20001AAF010038002FF0D7FE984B38009B46B0
:102E300006CB30F0A1F8010020A82FF0CDFE219A9A
:102E4000209920002FF044F90322914907902FF098
:102E50003FF94B460AA907980A93FDF769FF01223B
:102E60008C4907902FF034F907982FF00BF9209830
:102E7000B04201D00CF08AFC1A981CAB984201D0E9
:102E80000CF084FC149816AB984201D00CF07EFC38
:102E90006B461B7B00220793002B04D00699FE3261
:102EA00011400A001A431F2175480FF0BFFC039020
:102EB0000E98002801D00CF069FC039B002B00D178
:102EC00095E2002200230A920B93002301200C9329
:102ED0000CF050FC079A431C02702900694A0A90C2
:102EE00048460C930B93FFF7AFFB6B49484630F015
:102EF0006DF8010050462FF06FFE5B46504606CB42
:102F000030F03AF8010038002FF066FE63493800CF
:102F100030F05CF8010020A82FF05EFE219A209985
:102F200020002FF0D5F80AAB09A90993FDF700FF9F
:102F30002FF0A8F82098B04201D00CF027FC1A9886
:102F40001CAB984201D00CF021FC149816AB9842AF
:102F500001D00CF01BFC0E9810AB984201D00CF085
:102F600015FC1F2146480FF049FCFF2800D1C3E3A0
:102F7000682306AAD218107000200022834600237E
:102F80005046149215935B46836006AB9C466920BD
:102F90006044020020A95046FDF746FC68211F232B
:102FA00006A841180B70002200231A921B935B465F
:102FB0008446BB60693363441A00380020A9FDF7DA
:102FC00033FC69682B688C4663441A00296820A882
:102FD0002096FDF745FC324920A82FF0F7FF219AF3
:102FE000209920002FF074F809A90997FDF7A0FE99
:102FF000142283462B492FF06BF853464946584616
:103000000E93FDF795FE8346012222492FF060F8CA
:1030100058462FF037F82098B04201D00CF0B6FB9C
:103020001A98002801D00CF0B1FB149800283DD06C
:103030003AE0C046E0230020CC3A0020F0230020F4
:10304000F4230020F8230020FC230020E8230020A4
:10305000E4230020EC230020ACEE04109437002081
:10306000C40C0220C80C022038E604106CE60410E0
:1030700098E60410C4E6041004E7041030E70410D6
:103080008C0C02202C3B002084E70410443B0020E1
:1030900010EB041008EC0410ECE70410D4EA041060
:1030A0002CE8041068E804100CF070FB3322B049DF
:1030B00020002FF00DF820002EF0E4FF2B22AD4968
:1030C00020002FF005F820002EF0DCFF2B22AA496B
:1030D00020002EF0FDFF20002EF0D4FF3D22A74956
:1030E00020002EF0F5FF20002EF0CCFF2B22A4496B
:1030F00020002EF0EDFF20002EF0C4FF41462C22D0
:1031000020002EF0E5FF20002EF0BCFF29004846ED
:103110009C4AFFF799FA9C4B484606CB2FF02CFFB0
:10312000010050462FF058FD984B5046984606CB6C
:103130002FF022FF010038002FF04EFD1B9A1A9944
:1031400020002EF0C5FF924B059A9B46FF231340AB
:10315000594610220390009320A88E4BFDF7E2FC05
:10316000219A209903982EF0B3FF2EF08BFF209820
:10317000B04201D00CF00AFB1A981CAB984201D067
:103180000CF004FB149816AB984201D00CF0FEFA38
:103190000E9810AB984201D00CF0F8FA290048467E
:1031A000784AFFF751FA7C4B484606CB2FF0E4FEF5
:1031B000010050462FF010FD4346504606CB2FF03D
:1031C000DBFE010038002FF007FD1B9A1A99200042
:1031D0002EF07EFFFF238046049A59461340009349
:1031E00010226C4B20A8FDF79DFC219A20994046A7
:1031F0002EF06EFF2EF046FF2098B04201D00CF06A
:10320000C5FA1A981CAB984201D00CF0BFFA14987A
:1032100016AB984201D00CF0B9FA0E9810AB984258
:1032200001D00CF0B3FA20215C480FF0E7FA00223D
:1032300000231492159300239B4653465A4680461A
:103240009A6001200CF096FA5246431C9360424665
:1032500002705246536043461490FF2B00D123E284
:103260006821202306AA52181370002200231A9204
:103270001B935B46BB6006AB9C46693262443800D8
:1032800020A9FDF7D1FA69682B688C4663441A00BF
:10329000296820A82096FDF7E3FA414920A82FF0DD
:1032A00095FE219A209920002EF012FF09A9099776
:1032B000FDF73EFD062280463A492EF009FF5346AF
:1032C000494640460E93FDF733FD804601223649BC
:1032D0002EF0FEFE40462EF0D5FE2098B04201D0E2
:1032E0000CF054FA049B20211A01FF231B011A4001
:1032F000059B2A481A43D2B20FF098FA20968046CE
:10330000002800D0A8E169682B688C4663441A0045
:10331000296820A8FDF7A4FA244920A82FF056FE1A
:10332000219A209920002EF0D3FE49460E97FDF7F2
:10333000FFFC070039221E492EF0CAFE38002EF08D
:10334000A1FE2098B04201D00CF020FA1A98002873
:1033500001D00CF01BFA1498002801D00CF016FADA
:103360000A98002800D196E00CF010FA93E0C046CD
:1033700080E804106CE6041098E60410B4E8041029
:10338000F4E804105C3B0020E43A0020743B002089
:1033900045E5001094E00410FC3A00208C0C02205B
:1033A00044E904106CE9041008EC0410B8E90410B6
:1033B000D8E9041069682B688C4663441A002968B0
:1033C00020A82096FDF74CFADC4920A82FF0FEFD3E
:1033D000219A209920002EF07BFE2EF053FE20989B
:1033E000B04201D00CF0D2F914AB9A461AAF0022C9
:1033F00000231A921B9300230120BB600CF0BAF942
:1034000069681F228C46431CBB607B602B6802707E
:1034100063441A0029681A9020A82096FDF720FA24
:10342000C74920A82FF0D2FD219A209920002EF024
:103430004FFE2EF027FE2098B04201D00CF0A6F9E6
:1034400069682B688C4663441A00296820A8209676
:10345000FDF706FABB4920A82FF0B8FD219A209964
:1034600020002EF035FE51461497FDF761FC070051
:103470000722B5492EF02CFE38002EF003FE2098CE
:10348000B04201D00CF082F91A98002801D00CF05B
:103490007DF90023984606CD20A88A182096FDF7CE
:1034A000DFF9AA4920A82FF091FD219A2099200048
:1034B0002EF00EFE2EF0E6FD2098B04201D00CF06A
:1034C00065F9404627B03CBC90469946A246AB46BB
:1034D000F0BD200011F0F6F99D4D002801D1FFF755
:1034E000D7FB9C492800FDF7EDF9200011F006FA02
:1034F00099483DF047FB994C2378BFF35B8FDB077E
:1035000001D5FFF7CDFB200011F0DCF9002801D137
:10351000FFF7C6FB92499348FDF7D4F9200011F05C
:10352000EDF991483DF02EFB904C2378BFF35B8F73
:10353000DB0701D5FFF7BCFB200011F0C3F9002821
:1035400001D1FFF7B5FB8A498A48FDF7BBF9200096
:1035500011F0D4F988483DF015FB884C2378BFF36F
:103560005B8FDB0701D5FFF7ABFB200011F0AAF959
:10357000002801D1FFF7A4FB81498248FDF7A2F999
:10358000200011F0BBF980483DF0FCFA7F4C237815
:10359000BFF35B8FDB0701D5FFF79AFB200011F02B
:1035A00091F9002801D1FFF793FB79497948FDF79C
:1035B00089F9200011F0A2F977483DF0E3FA774C41
:1035C0002378BFF35B8FDB0701D5FFF789FB200072
:1035D00011F078F9002801D1FFF782FB704971489A
:1035E000FDF770F9200011F089F96F483DF0CAFA33
:1035F0006E4C2378BFF35B8FDB0701D5FFF778FBB9
:10360000200011F05FF9002801D1FFF771FB684934
:103610006848FDF757F9200011F070F966483DF051
:10362000B1FA664C2378BFF35B8FDB0701D5FFF758
:1036300067FB200011F046F9002801D1FFF760FB7D
:103640005F496048FDF73EF9200011F057F95E48E8
:103650003DF098FAFFF754FB69682B688C46634489
:103660001A00296820A8FDF7FBF8584920A82FF078
:10367000ADFC219A209920002EF02AFD534609A97D
:103680000993FDF755FB82462C2251492EF020FD6F
:10369000494650460E97FDF74BFB2EF0F3FC209861
:1036A000B04200D050E651E669682B688C4663440E
:1036B0001A00296820A82096FDF7D2F8454920A8CD
:1036C0002FF084FC219A209920002EF001FD534612
:1036D00039001A93FDF72CFB070007221A492EF038
:1036E000F7FC38002EF0CEFC2098B04201D00CF050
:1036F0004DF8002398462EE669682B688C46634493
:103700001A00296820A82096FDF7AAF8324920A8B7
:103710002FF05CFC219A209920002EF0D9FC2EF08D
:10372000B1FC2098B04200D0BEE4BFE411002B48A9
:1037300023F0B8FA0521294823F0B4FA60E7041011
:1037400090E70410C0E704107CE70410C4EE0410F6
:10375000CC3A002044E5041009040010F0230020B6
:1037600054E504102C3B0020F1030010F42300204A
:1037700094E50410443B0020D9030010F8230020F6
:10378000A8E504105C3B0020C1030010FC230020CE
:10379000D4E50410743B0020A9030010E8230020A6
:1037A00018E50410FC3A002091030010E4230020E7
:1037B00010E50410E43A002079030010EC23002007
:1037C000FCE50410143B00206103001074E90410B0
:1037D00088E9041020E90410F4E70410D0DF041095
:1037E000F0B54E464546DE4657460023E0B5F14D5E
:1037F00099462B78AFB0BFF35B8FDB0701D400F0A5
:1038000054FCED4CED4D2B78BFF35B8FDB0701D4FF
:1038100000F038FCEA4D2B78BFF35B8FDB0701D457
:1038200000F01DFCE74D2B78BFF35B8FDB0701D465
:1038300000F002FC61681EAB8C461C932368216873
:1038400063441A001CA8FDF70BF8DF4B1D9A9B1A66
:103850000A2B01D800F055FC0B22DC491CA82FF0E4
:103860008BFBDB4B1D9A18001C9998462EF030FC00
:103870002EF008FC1C981EAB984201D00BF086FF7E
:10388000D44B1F2118009A460EF0B8FF00260027DF
:1038900000258346069001200A960B970C950BF0A5
:1038A00069FF431C1F220C930B935B460A90027026
:1038B000FF2B00D172E30123069A01201A400692E1
:1038C0001C961D971E950BF055FF431C069A1E93E0
:1038D0001D93C14B02701C900CCB9A4201D100F099
:1038E00017FC069B28AD1360616823688C4663440F
:1038F0001A00280021682AAF04972897FCF7B0FF28
:10390000B64928002FF062FB299A289940462EF0EC
:10391000DFFB0AAB16A91693FDF70AFA0600072289
:10392000AF492EF0D5FB1CAB229322AB190030001F
:103930009B46FDF7FDF906000122AA492EF0C8FBBF
:1039400030002EF09FFB2898B84201D00BF01EFFEC
:10395000616824AB8C4603932293236858466344E2
:103960001A002168FCF77CFF9F4958462FF02EFB78
:10397000239A229940462EF0ABFB0600069B1022AC
:1039800028009A4900939A4BFDF7CCF8299A289978
:1039900030002EF09DFB2EF075FB2898049B98427A
:1039A00001D00BF0F3FE2298039B984201D00BF05C
:1039B000EDFE1C98002801D00BF0E8FE00230993CF
:1039C000202150460EF01AFF002700230026059004
:1039D00001209A460E960F9710930BF0CBFE431CD6
:1039E00010930F935346059A0E9002700120129681
:1039F000139714930BF0BEFE616820228C46431C83
:103A0000149313932368049F6344027012901A0066
:103A1000280021682897FCF723FF6B4B299A9B1AF3
:103A20004F2B00D86DE35022724928002FF0A4FAE2
:103A3000299A289940462EF04BFB12AB1CA91C93E7
:103A4000FDF776F9060006226B492EF041FB0EAB1E
:103A5000594630002293FDF76BF9060001226149B7
:103A60002EF036FB30002EF00DFB2898B84201D026
:103A70000BF08CFE059BFF2B00D1B7E21A000F273D
:103A800018093A400792C2B2606818A98446169194
:103A90002168089261440A0016A82168FCF7E0FE3C
:103AA000564916A82FF092FA179A169940462EF00A
:103AB0000FFB0600059B4D49102200931CA84C4BA0
:103AC0008A46FDF72FF830001D9A1C992EF000FB56
:103AD000060005224A492EF0FBFA454B10225146BA
:103AE00058460097FDF71EF83000239A22992EF0D1
:103AF000EFFA0600042243492EF0EAFA089A3C4BFA
:103B00005146280000921022FDF70CF83000299A47
:103B100028992EF0DDFA3C490222894607002EF052
:103B2000D7FA3A4E70683168421AD21093009B1847
:103B300018011B1818021B1818041B185B009A1890
:103B4000089B934200D3DFE21A0094465B00634473
:103B5000DB00C91806C938002EF0BAFA2EF092FA26
:103B60002898049B984201D00BF010FE229824ABB9
:103B70000393984201D00BF009FE1C981EAB9842AB
:103B800001D00BF003FE169818AB984201D00BF051
:103B9000FDFD616818AB8C46169323682168634469
:103BA0001A0016A8FCF75CFE194916A82FF00EFAA9
:103BB000179A2FE0D02300206C3A0020D823002051
:103BC000DC230020D4230020FFFFFF3FACEE0410D5
:103BD000943700208C0C0220C80C0220D8EA041074
:103BE0000CEB041008EC041014EB041045E5001075
:103BF00094E0041040EB041094EB0410ECEB041080
:103C000004EC04100CEC041014EC041088200020C8
:103C100018EC0410169940462EF05AFA0700059B3E
:103C20001022514600931CA8CF4BFCF77BFF3800B5
:103C30001D9A1C992EF04CFA0522CC4907002EF053
:103C400047FAF0231022514658460093C64BFCF722
:103C500069FF3800239A22992EF03AFA07000422CD
:103C6000C3492EF035FA079B1022514628000093D5
:103C7000BD4BFCF757FF3800299A28992EF028FAF7
:103C80000222494607002EF023FA06CE521AD2101D
:103C900093009B1818011B1818021B1818041B18F6
:103CA0005B009A18079B934200D32DE21A009446BA
:103CB0005B006344DB00C91806C938002EF008FA1F
:103CC0002EF0E0F92898049B984201D00BF05EFD9D
:103CD0002298039B984201D00BF058FD1C981EAB14
:103CE000984201D00BF052FD169818AB984201D0C3
:103CF0000BF04CFD9F4F39687B685B1A9A10132BB1
:103D000000D80EE2079A9C4B0A611A6021009B4A78
:103D100016A8FEF799FC9A4B179A9B1A032B00D80A
:103D2000EFE10422974916A82FF026F908229146C0
:103D30001EAB1C930368814406004B4500D1D4E1BF
:103D40001C9383681E9373681CA81D934B463360B5
:103D50000023736033728C4B994606CB2FF00CF91D
:103D60000822944684446246039B0600229303681B
:103D70000592634500D1ACE1229383682493736874
:103D800040462393059B3360002333727360239A6C
:103D900022992EF09DF90600079B1022514628001B
:103DA0000093714BFCF7BEFE299A289930002EF043
:103DB0008FF92EF067F92898049B984201D00BF0F8
:103DC000E5FC2298039B984201D00BF0DFFC1C9885
:103DD0001EAB984201D00BF0D9FC169818AB984254
:103DE00001D00BF0D3FC0ACF5B1A9A10172B00D826
:103DF00093E1089A654B4A611A6021005F4A16A850
:103E0000FEF722FC624916A82FF0E0F807001EAB6F
:103E10001C93036808370600BB4200D16BE11C937A
:103E200083681E9373681CA81D930023736033720C
:103E30004B46376006CB2FF09FF80700039B0837EF
:103E4000229303680600BB4200D148E122938368B5
:103E50002493736840462393002337603372736062
:103E6000239A22992EF034F90600089B102251461D
:103E7000280000933C4BFCF755FE299A2899300006
:103E80002EF026F92EF0FEF82898049B984201D0D7
:103E90000BF07CFC2298039B984201D00BF076FC3F
:103EA0001C981EAB984201D00BF070FC169818AB12
:103EB000984201D00BF06AFC079B089A134399467D
:103EC0004B4606981843C0B2002849D006CC039B45
:103ED0008A1858462293FCF7C3FC294B239A9B1A55
:103EE0001A2B00D80DE11B222A4958462FF044F81E
:103EF000239A229940462EF0EBF80400099B1022E9
:103F0000280025490093184BFCF70CFE299A2899A4
:103F100020002EF0DDF82EF0B5F82898049B98428A
:103F200001D00BF033FC2298039B984201D00BF098
:103F30002DFC1298002801D00BF028FC0E980028C8
:103F400001D00BF023FC0A98002801D00BF01EFCD6
:103F500009982FB03CBC90469946A246AB46F0BDAE
:103F600003235B420993B1E794E0041004EC0410CE
:103F70000CEC0410C80C0220901300209C3A002086
:103F8000FFFFFF3F10E50410B43A00209413002017
:103F900018E5041030EC041045E500106168236852
:103FA0008C4628AD63441A00280021682AAE049686
:103FB0002896FCF755FC5D4928002FF007F8299A50
:103FC000289940462EF084F80AAB229322AB1900C0
:103FD0009B46FCF7ADFE2EF055F82898B04201D074
:103FE0000BF0D4FB01235B420993E9E46168236889
:103FF0008C46049E63441A00280021682896FCF72A
:104000002FFC4B4928002EF0E1FF299A28994046C1
:104010002EF05EF812AB59462293FCF789FE2EF083
:1040200031F82898B04201D00BF0B0FB02235B427C
:10403000099324AB039343E7280010F043FC0028C6
:1040400001D1FFF7F7FB3B493B48FCF73BFC28005D
:1040500010F054FC39483CF095FDFFF7EBFB2800CD
:1040600010F030FC002801D1FFF7DCFB3449354863
:10407000FCF728FC280010F041FC33483CF082FD9E
:10408000FFF7D0FB280010F01DFC002801D1FFF73E
:10409000C1FB2E492E48FCF715FC280010F02EFC21
:1040A0002C483CF06FFDFFF7B5FB280010F00AFC30
:1040B000294C002801D1FFF7A5FB28492000FCF777
:1040C00001FC280010F01AFC25483CF05BFDFFF7CE
:1040D00099FB1022614603980BF046FB4FE6102235
:1040E000390003980BF040FBB3E6494608321EA89E
:1040F0000BF03AFB27E6102239001EA80BF034FB28
:1041000090E6184822F0B6FD1900174822F0CAFDC3
:1041100000221548110022F0C5FD0521124822F0A9
:10412000C1FD0421104822F0BDFDC046A4EA0410E0
:104130009CEB041068EA0410843A0020410500104A
:1041400030EA0410B43A00205905001024EA0410A3
:104150009C3A0020710500106C3A002014EA04100B
:104160008905001058E00410D0DF0410F0B5C646F1
:1041700000B5984E040033780D00BFF35B8F98B004
:10418000DB0700D4FAE0944E3378BFF35B8FDB0794
:1041900000D4E2E0914E3378BFF35B8FDB0700D4AD
:1041A000CAE0012217008E4E3378BFF35B8F1F40A9
:1041B0001A4200D196E08B4E3378BFF35B8FDB075A
:1041C00000D47EE0884E3378BFF35B8FDB0767D582
:1041D000072C5DD96846854A8549FEF735FA684659
:1041E00084492EF0F3FE070008AE069603680837F0
:1041F0000400BB4200D1E0E0069383680893636843
:1042000006A807930023636023727B4B276006CBCD
:104210002EF0B2FE082290460EAF0C970368804441
:104220000400434500D1CEE00C9383680E9363688D
:1042300072480D93434623600023237263600D9AF6
:104240000C992DF045FF2DF01DFF0C98B84201D0C0
:104250000BF09CFA0698B04201D00BF097FA009848
:1042600002AB984201D00BF091FA654B1C68072C09
:104270000ED9644B1968644C0B7A0A7920000978CE
:104280000EF096FE002D07D118B004BC9046F0BD8C
:104290005E4BA4001B599F4620000EF0B5FFF3E7CC
:1042A000300010F00FFB002800D191E75849594821
:1042B000FCF708FB300010F021FB57483CF062FC93
:1042C00086E7300010F0FEFA002800D17AE7534963
:1042D0005348FCF7F7FA300010F010FB51483CF05F
:1042E00051FC6FE7300010F0EDFA002800D162E7D2
:1042F00040490CA8FCF7E6FA4B4912A8FCF7E2FA91
:104300004A4818AA0CA9076047608760FCF7A4FB1D
:10431000300010F0F3FA46483CF034FC129814AB2D
:10432000984201D00BF032FA0C980EAB984200D1B3
:1043300041E70BF02BFA3EE7300010F0C3FA0028FB
:1043400000D12EE73B492C48FCF7BCFA300010F0B6
:10435000D5FA39483CF016FC23E7300010F0B2FAE9
:10436000002800D116E735492048FCF7ABFA3000A9
:1043700010F0C4FA32483CF005FC0BE7300010F0B6
:10438000A1FA002800D1FEE62E491948FCF79AFA56
:10439000300010F0B3FA2C483CF0F4FBF3E62B4B62
:1043A00068E72B4B66E72B4B64E72B4B62E72B4B05
:1043B00060E72B4B5EE72B4B5CE7102239003000A7
:1043C0000BF0D2F91BE74146380008320BF0CCF96C
:1043D0002DE7C04610240020042400200C240020D7
:1043E000142400201824002008240020A43B0020CE
:1043F000EC3B002010E50410D43B00209437002053
:1044000090130020A81F0020280C02204CEC041060
:1044100038E50410BC3B00201906001020E504100C
:10442000103C00203106001018E50410043C002068
:10443000A509001000E5041049060010F0E404107E
:1044400061060010DCE404107906001098200020BA
:10445000C81F0020E81F0020B81F0020981F002060
:1044600068200020881F0020F0B5DE4657464E46E3
:104470004546E0B5F04CE5B02378BFF35B8FDB0732
:1044800001D400F04AFEED4C2378BFF35B8FDB07CD
:1044900001D400F02FFEEA4C2378BFF35B8FDB07DB
:1044A00001D400F014FEE74C2378BFF35B8FDB07E9
:1044B00001D400F0F9FDE44C2378BFF35B8FDB07F8
:1044C00001D400F0DEFD01221500E04C2378BFF39B
:1044D0005B8F1D401A4201D100F092FDDC4B0C2194
:1044E00018009A4606F0A0FF002801D100F071FDE7
:1044F000642007F069FC00239B4601335D469B4620
:104500005B46002B00D0A5E30C21504606F08CFF43
:104510008346002800D142E1CE4B06AE1F685C689E
:104520000496002F01D100F0D6FC46940F2C01D93F
:1045300000F066FC012C01D000F017FD3B7802AAC8
:1045400013743200002305941355059AC24B9A4206
:1045500001D100F0FDFD0122C04904A82EF00CFDA0
:10456000BF4B04A806CB2EF007FD07000CAB0A9347
:104570009846036808370400BB4201D100F0DBFC19
:104580000A9383680C9363680B9300232760B54FED
:104590006360237238000B9A0A992DF099FD036825
:1045A00004000C3B1B68C318DB6F9946002B01D13C
:1045B00000F0CCFD1B7F002B00D1C9E327234A4626
:1045C000D15C20002DF0FEFC2DF06CFC0A984045DB
:1045D00001D00BF0DBF80498B04201D00BF0D6F814
:1045E000A14E12AB1093336874689846002B01D12A
:1045F00000F076FC46940F2C01D900F011FC012C40
:1046000001D000F0B9FC40211B7802AA52181370A7
:1046100012AA002311941355944B10A806CB2EF028
:10462000ABFC119A109938002DF052FD904C804649
:10463000636821685A1AD21093009B1818018446A7
:1046400063441802844663441804844663445B0050
:104650009B189D4201D300F07EFD6B005B19DB00CF
:104660009C466144404606C902932DF031FD8046C8
:1046700003680C3B1B684344DB6F9946002B01D158
:1046800000F064FD1B7F002B00D170E327234A4616
:10469000D15C40462DF096FC2DF004FC109812AB36
:1046A000984201D00BF072F8724B013505CB121A0B
:1046B000D21093009B1819015B1819025B1819049A
:1046C0005B185B009B18A8469D4201D300F043FD98
:1046D000029B69491833C0182EF076FD002802D1DC
:1046E00000230025984618AB9946169333687668E0
:1046F0000293002B01D100F0FAFB46960F2E00D951
:10470000BCE3012E01D000F029FC58211B7802AA3D
:10471000521813704A46002317969355574B16A804
:1047200006CB2EF029FC179A169938002DF0D0FCF4
:1047300022686168891AC9108B005B181C011B195B
:104740001C021B191C041B195B005B18434501D894
:1047500000F00AFD43465B004344DB00D31806CB60
:104760002DF0B6FC036804000C3B1B68C318DE6F19
:10477000002E01D100F0EAFC337F002B00D114E3BE
:104780002723F15C20002DF01DFC2DF08BFB1698EB
:10479000484501D00AF0FAFFC82007F015FB0D21AB
:1047A000504606F041FE0290002800D162E1294BFC
:1047B0001EAE1F685C681C96002F00D19CE34694D7
:1047C0000F2C00D93CE3012C00D0DCE370213B78B6
:1047D00002AA52181370320000231D9413551D9A1B
:1047E0001D4B9A4201D100F0B3FC012224491CA8C0
:1047F0002EF0C2FB1A4B1CA806CB2EF0BDFB070007
:1048000024AB22939846036808370400BB4200D1CA
:1048100098E322938368249363682393002327609B
:10482000104F636023723800239A22992DF050FCB8
:104830000368040026E0C0464424002040240020F1
:104840003C24002038240020342400204824002068
:10485000280C02200C3D0020FFFFFF3F10ED04104C
:10486000F43C002094370020DC3C0020C43C0020B5
:10487000882000205820002020E30410AC3C0020B9
:1048800014ED04100C3B1B68C318DB6F9946002B1A
:1048900001D100F05BFC1B7F002B00D176E22723C7
:1048A0004A46D15C20002DF08DFB2DF0FBFA2298BA
:1048B000404501D00AF06AFF1C98B04201D00AF0CE
:1048C00065FFD64E2AAB9B4628933368746898469A
:1048D000002B00D114E346940F2C00D9BFE2012C29
:1048E00000D05CE3A0211B7802AA521813705A462C
:1048F000002329941355CA4B28A806CB2EF03CFB65
:10490000299A289938002DF0E3FBC64C804663684D
:1049100021685A1AD21093009B18180184466344E8
:104920001802844663441804844663445B009B1861
:104930009D4201D300F00FFC6B005B19DB009C462D
:104940006144404606C903932DF0C2FB80460368CC
:104950000C3B1B684344DB6F9946002B01D100F0F0
:10496000F5FB1B7F002B00D12DE227234A46D15CAB
:1049700040462DF027FB2DF095FA2898584501D098
:104980000AF004FFA84B013D05CB121AD210930088
:104990009B1819015B1819025B1819045B185B005E
:1049A0009B18A9469D4200D3D5E3039B9F49183B22
:1049B000C0182EF009FC002802DA072307259946C3
:1049C00030AB98462E93336876689B46002B00D117
:1049D0009AE246960F2E00D95FE2012E00D0D8E26F
:1049E000B8211B7802AA52181370424600232F9652
:1049F00093558F4B2EA806CB2EF0BEFA2F9A2E99E8
:104A000038002DF065FB22686168891AC9108B0097
:104A10005B181C011B191C021B191C041B195B00D1
:104A20005B18994500D3ACE34B465B004B44DB007D
:104A3000D31806CB2DF04CFB036804000C3B1B681D
:104A4000C318DE6F002E00D180E3337F002B00D12E
:104A5000C8E12723F15C20002DF0B4FA2DF022FAF2
:104A60002E98404501D00AF091FEC82007F0ACF91D
:104A7000029B9B460E21504606F0D6FC002869D1C9
:104A80000F21504606F0D0FC002800D138E5694BD4
:104A900042AE06CB40A88A184096FBF7E1FE664B73
:104AA000419AAB469A4200D152E30122634940A8A1
:104AB0002EF062FA624B40A806CB2EF05DFA05009C
:104AC00048AF4697036808350400AB4200D137E38E
:104AD00046938368489363685A4847930023256048
:104AE00023726360479A46992DF0F2FA0368040036
:104AF0000C3B1B68C318DD6F002D00D126E32B7F14
:104B0000002B00D157E22723E95C20002DF05AFA50
:104B10002DF0C8F94698B84201D00AF037FE409807
:104B2000B04201D00AF032FEC82007F04DF9464BE2
:104B30000ACB5B1A9A10172B00D827E35B465A461C
:104B40004B61424B1A6065B03CBC90469946A24608
:104B5000AB46F0BD374B36AE1F685C683496002F0D
:104B600000D1E4E146940F2C00D9D1E1012C00D012
:104B70001BE2D0213B7802AA5218137032000023A6
:104B800035941355359A2C4B9A4200D1E0E201221C
:104B90002F4934A82EF0F0F9294B34A806CB2EF07B
:104BA000EBF9082290463CAF3A9703688044040032
:104BB000434500D1CCE13A9383683C936368214834
:104BC0003B93434623600023636023723B9A3A99E8
:104BD0002DF07EFA036804000C3B1B68C318DB6FE2
:104BE0009846002B00D1B1E21B7F002B00D163E17E
:104BF00027234246D15C20002DF0E4F92DF052F934
:104C00003A98B84201D00AF0C1FD3498B04201D0C0
:104C10000AF0BCFDC82007F0D7F831E7DC3C0020E3
:104C2000C43C0020882000205820002008E3041005
:104C3000AC3C00200C3D0020FFFFFF3F18ED0410AE
:104C4000F43C002094370020C80C0220941300206C
:104C500078470510E24B01211B68002618000293DB
:104C6000FFF784FA142007F0AFF800212800FFF7BF
:104C70007DFA0F2301249846DA4F3B687A68D21AEE
:104C80009210A24200D86BE2A200D358D64A4793B2
:104C90001268032391190292424600934692994664
:104CA0005046EC3346AA01340EF0D8FD1836062CD7
:104CB000E3D10ACF5B1A9A101B2B00D85DE2CB4AD6
:104CC0008C6913685168C91AC9108A0052181001FA
:104CD000121810021218100412185200521895429D
:104CE00000D346E26E008C217619F6009E1900234F
:104CF000490002AA521848AF479346971370736849
:104D000046A8591D2DF0B8FFB94B479A9B1A042BA2
:104D100000D81DE20522B74946A82EF02DF906CE8F
:104D200046A82EF029F9434640934B46504600933F
:104D300040AAEF2346A941940EF090FD4698B84250
:104D400001D00AF023FD504606F068FBFFF7DCFBBC
:104D5000484616F027FA4B461B68A74A9B690A216A
:104D6000934200D12DE448469847010029E4484683
:104D700016F018FA4B461B689F4A9B690A2193421A
:104D800000D186E448469847010082E4484616F080
:104D900009FA4B461B68984A9B690A21934200D145
:104DA00080E54846984701007CE5300016F0FAF9A6
:104DB0003368914A9B690A21934200D1E2E43000B2
:104DC00098470100DEE4484616F0ECF94B461B68B4
:104DD000894A9B690A21934200D1C9E54846984710
:104DE0000100C5E5300016F0DDF93368824A9B69A1
:104DF0000A21934200D12EE63000984701002AE6AE
:104E0000002246A904A82DF0F1FD469B04900693CC
:104E1000220039000AF0A8FC469C049AFFF792FB96
:104E2000002246A910A82DF0E1FD469B1090129398
:104E3000220041460AF098FC469C109AFFF7E9FBD5
:104E4000002246A91CA82DF0D1FD469B1C901E9364
:104E5000220039000AF088FC469C1C9ABCE400221F
:104E600046A928A82DF0C2FD469B28902A9322002F
:104E700041460AF079FC469C289A39E5002246A969
:104E800016A82DF0B3FD469B169018933200029998
:104E90000AF06AFC469E169A3DE4002246A92EA816
:104EA0002DF0A4FD469B2E903093320059460AF017
:104EB0005BFC469E2E9A99E5404616F073F94346F0
:104EC0001B684D4A9B690A21934200D193E64046F4
:104ED000984701008FE6002C06D13200FFF732FB25
:104EE000002C01D1FFF794FB444821F0ABFE002ECB
:104EF00001D1FFF70FFCF7E7002C00D16BE4F3E7DB
:104F0000002C00D1F3E4EFE7002E00D16DE5EBE7D4
:104F1000002246A934A82DF069FD469B34903693B3
:104F2000220039000AF020FC469C349A27E6002C27
:104F300000D123E6D8E71022390040460AF014FCDD
:104F4000FFF721FB1022390040460AF00DFC63E414
:104F50004146380008320AF007FC2FE64A46002E88
:104F600001D1FFF7D8FB484690E73200002C01D171
:104F7000FFF7E8FA30004BE712AA002C01D1FFF747
:104F800048FB100054E73200002C00D124E430002C
:104F90005EE74246002E00D128E5404685E75A46A6
:104FA000002C00D1A4E4584661E73200002C00D167
:104FB000E5E53000B4E7280016F0F4F82B680E4A57
:104FC0009B690A21934200D19FE528009847010080
:104FD0009BE50D21504606F027FAFFF789FAC046F7
:104FE0009013002018200020243D0020882000205D
:104FF000FFFFFF3F08ED04105D03001044DF0410C5
:1050000020000FF05FFC002801D1FFF767FA46AEE1
:1050100060493000FBF756FC5F494CA8FBF752FC97
:105020005E4952A8FBF74EFC5D4958A8FBF74AFCC5
:105030005C495EA8FBF746FC5B48310064AA05604A
:1050400045608560FBF708FD20000FF057FC5748CE
:105050003BF098FD64AC183C23002068083398426C
:105060000BD00AF093FBB44201D1FFF737FA183C9A
:105070002300206808339842F3D1B442EBD1FFF704
:105080002DFA20000FF01EFC002801D1FFF71BFABB
:1050900047494848FBF716FC20000FF02FFC464814
:1050A0003BF070FDFFF70FFA20000FF00BFC00281B
:1050B00001D1FFF700FA41494148FBF703FC20000A
:1050C0000FF01CFC3F483BF05DFDFFF7F4F92000BA
:1050D0000FF0F8FB002801D1FFF7E5F93A493B480A
:1050E000FBF7F0FB20000FF009FC39483BF04AFDCC
:1050F000FFF7D9F920000FF0E5FB002801D1FFF7F9
:10510000CAF934493448FBF7DDFB20000FF0F6FB09
:1051100032483BF037FDFFF7BEF920000FF0D2FB1D
:10512000002801D1FFF7AFF92D492E48FBF7CAFB44
:1051300020000FF0E3FB2C483BF024FDFFF7A3F920
:105140001022290038000AF00FFBC4E421F06AFDA8
:10515000264821F08FFD1A002900254821F0A2FDE4
:105160002100234821F09EFD1A004146204821F0ED
:1051700099FD29001E4821F095FD06211C4821F0CB
:1051800091FD1A0049461A4821F08CFD0521184866
:1051900021F088FDC4EC0410D0EC0410E0EC041005
:1051A000F0EC0410FCEC0410243D0020E109001098
:1051B000B4EC0410AC3C002091060010A4EC0410E8
:1051C000C43C0020A906001088EC0410DC3C002040
:1051D000C1060010B4E10410F43C0020D906001010
:1051E0006CEC04100C3D0020F106001058E0041097
:1051F000D0DF0410F0B5914D04002B7899B0BFF3C7
:105200005B8FDB0700D4EEE08D4D2B78BFF35B8F17
:10521000DB0700D4D6E08B4D2B78BFF35B8FDB0729
:1052200000D4BEE001221600874D2B78BFF35B8FC0
:105230001E401A4200D18AE0844D2B78BFF35B8F69
:10524000DB0700D472E0824D2B78BFF35B8FDB0766
:105250005CD5072C56D968467E4A7F49FDF7F4F99C
:1052600068467E492DF0B2FE060008AD069503683B
:1052700008360400B34200D1D4E006938368089353
:10528000636806A80793002363602372744B26604B
:1052900006CB2DF071FE07000EAE0C9603680837A2
:1052A0000400BB4200D1C3E00C9383680E93636893
:1052B0006C480D9300232760237263600D9A0C994C
:1052C0002CF006FF2CF0DEFE0C98B04201D00AF064
:1052D0005DFA0698A84201D00AF058FA009802AB8D
:1052E000984201D00AF052FA5F4B1C68072C09D98A
:1052F0005E4B19685E480B7A0A7909780DF058FE02
:1053000019B0F0BD5B4BA4001B599F4628000FF05D
:10531000D9FA00289DD058495848FBF7D3FA2800FD
:105320000FF0ECFA56483BF02DFC92E728000FF006
:10533000C9FA002800D186E752495348FBF7C2FA60
:1053400028000FF0DBFA51483BF01CFC7BE72800FB
:105350000FF0B8FA002800D16EE74D490CA8FBF712
:10536000B1FA3E4912A8FBF7ADFA4A4818AA0CA9AF
:10537000066046608660FBF76FFB28000FF0BEFA00
:1053800045483BF0FFFB129814AB984201D00AF05D
:10539000FDF90C980EAB984200D14DE70AF0F6F9F2
:1053A0004AE728000FF08EFA002800D13AE73B497F
:1053B0002B48FBF787FA28000FF0A0FA38483BF09B
:1053C000E1FB2FE728000FF07DFA002800D122E74B
:1053D00034492048FBF776FA28000FF08FFA32485C
:1053E0003BF0D0FB17E728000FF06CFA002800D143
:1053F0000AE72E491848FBF765FA28000FF07EFAF5
:105400002B483BF0BFFBFFE62A4B72E72A4B70E7C5
:105410002A4B6EE72A4B6CE72A4B6AE72A4B68E770
:105420002A4B66E71022310028000AF09DF927E791
:105430001022390030000AF097F938E710240020D4
:10544000042400200C240020142400201824002010
:1054500008240020A43B0020EC3B002018E50410A9
:10546000D43B00209437002094130020A81F002074
:10547000280C02201CED041038E50410BC3B002071
:105480001906001020E50410103C00203106001021
:1054900010E50410043C0020A509001000E50410EC
:1054A00049060010F0E4041061060010DCE404106A
:1054B0007906001098200020B81F0020981F0020B7
:1054C00068200020881F0020C81F0020E81F00203F
:1054D000F0B54E464546DE4657460022E0B59FB041
:1054E00008AB069306AB1A72C4490EAB0C93079235
:1054F000050008880CAE188089789970032314A9D8
:105500000D93BF4BF272B16111CB11C10800198824
:1055100001809B7883700B2313932033F2541AABD2
:105520003363B84B48201A93042319933833F25449
:105530000AF020F9804643460C9F08300D9C186005
:10554000002F00D127E105940F2C00D99EE0012CFB
:1055500000D03BE142463B78137243465C60002337
:105560000355404643464246129F2030139C183351
:105570009061002F00D114E105940F2C00D9F9E0BF
:10558000012C00D026E1202341463A78CA544346F4
:10559000DC6100230355404643464246189F38309D
:1055A000199C30331063002F00D1FEE005940F2CBE
:1055B00000D9CEE0012C00D010E1382341463A78E2
:1055C000CA5443465C630023035548334344039362
:1055D0001EAC183C23002068083398426BD00AF0B8
:1055E000D5F8B442F5D1002D69D005200AF0C2F8F3
:1055F0001423814603702833437028338370283383
:10560000C3702833037101210120FEF7AFFD142080
:1056100006F0DAFB0420FFF7EDFD7B4B0A221800B1
:105620007A499A462CF054FD4B465F7843465046E3
:1056300006CB2CF04DFD764B4546012401229B46BE
:1056400074492CF045FD05233360013B776032003F
:1056500000932900EB3358460EF000F90323A342D0
:1056600051DD042C00D1BDE04B4601331F5D032CFE
:1056700000D3BCE05046EA69A96918352CF028FD32
:10568000012C14D0002264490134DAE7002240469C
:1056900005A92DF0ABF94346059A18609A602200DF
:1056A00039000AF061F84346059C186855E7012265
:1056B00058490134C5E7B4428BD1002D95D1039BE5
:1056C00043450BD04446230020680833984215D048
:1056D0000AF05CF8039B1834A342F4D140460AF068
:1056E00055F8069808AB984201D00AF04FF81FB061
:1056F0003CBC90469946A246AB46F0BD039B18348D
:10570000A342E0D1EAE70022504643492CF0E0FCF6
:1057100053461B680C3B1B685344DC6F002C6BD05A
:10572000237F002B45D02723E15C50462CF04AFC18
:105730002CF0B8FB0023069A07935846137005F027
:105740006DFEFA20800006F03FFB48460AF01EF886
:10575000B5E70022180005A92DF048F94346059A3F
:1057600018639A632200390009F0FEFF4346059C46
:10577000186B26E70022180005A92DF037F94346DB
:10578000059A98611A622200390009F0EDFF43463C
:10579000059C9869FBE6002C00D1DEE61F4821F04D
:1057A00051FA002C00D1F2E6F8E7002C00D108E70E
:1057B000F4E7200015F0F6FC2368194A9B690A21DA
:1057C0009342B2D0200098470100AEE7002C00D1F0
:1057D000C3E664E7002C00D1D9E6D4E7002C00D161
:1057E000EFE6BFE7052205210E4821F05BFA032210
:1057F00021000C4821F056FA21F014FA3CED041077
:1058000040ED041079657421943700204CED0410AC
:10581000280C022000EF04105CE7041044DF0410A1
:105820005D030010D0DF0410F0B5DE4657464E464B
:105830004546E0B58E4CAFB002902378BFF35B8F46
:10584000DB0700D402E18B4E8B4C2378BFF35B8FD8
:10585000DB0700D4E9E0894C2378BFF35B8FDB07DB
:1058600000D4D1E0864C2378BFF35B8FDB0700D4F4
:10587000B9E0844C2378BFF35B8FDB0700D4A1E051
:10588000814C2378BFF35B8FDB0700D489E071681C
:105890002AAB8C4628939B463368316863441A00D0
:1058A00028A8FAF7DDFF794B299A9B1A1F2B00D8FD
:1058B00098E32022764928A82DF05EFB754B299AA3
:1058C0001800289998462CF003FC734B0400994665
:1058D000724B10221B684946009322A8704BFBF7BD
:1058E00021F92000239A22992CF0F2FB03226D4922
:1058F00007002CF0EDFB694B6B4C1868216863685E
:105900005A1AD21093009B181D01AC4663441D0225
:10591000AC4663441D04AC4663445B009A18904255
:1059200000D35BE343001818C000091806C938000B
:105930002CF0CEFB036807000C3B1B68C318DB6F21
:105940009A46002B00D143E31B7F002B1BD027235B
:105950005246D15C38002CF035FB2CF0A3FA22988B
:1059600024AB984201D009F011FF2898584501D086
:1059700009F00CFF494B1B68062B00D9EBE24B4AA0
:105980009B00D3589F46504615F00CFC53461B68AD
:10599000474A9B690A219342DCD050469847010050
:1059A000D8E720000EF08EFF002800D16FE74149B4
:1059B0004148FAF787FF20000EF0A0FF3F483BF078
:1059C000E1F864E720000EF07DFF002800D157E7E2
:1059D0003B493C48FAF776FF20000EF08FFF3A482B
:1059E0003BF0D0F84CE720000EF06CFF002800D10F
:1059F0003FE736493648FAF765FF20000EF07EFF94
:105A000034483BF0BFF834E720000EF05BFF00287D
:105A100000D127E730493148FAF754FF20000EF053
:105A20006DFF2F483BF0AEF81CE720000EF04AFF58
:105A3000002800D10FE72B492B48FAF743FF20003D
:105A40000EF05CFF29483BF09DF804E720000EF0C3
:105A500039FF084E002800D1F6E625493000FAF754
:105A600031FF20000EF04AFF22483BF08BF8EBE6B6
:105A700060240020A83D00205C2400205424002045
:105A800058240020502400204C240020FFFFFF3F1A
:105A900000EE04109437002045E500109813002014
:105AA00094E0041024EE0410BC24002030EE041016
:105AB0005D030010D8ED0410303D0020810400107B
:105AC000C0ED0410483D002099040010B0ED041012
:105AD000783D0020B10400109CED0410603D0020D2
